S00E0000424E4F3035352E737265639D
S113000071C0000086C0000084C0000082C00000EF
S113001080C000007EC000007CC000007AC00000E8
S113002078C0000076C0000074C0000072C00000F8
S113003070C000006EC000006CC000006AC0000008
S113004068C0000066C0000064C0000062C0000018
S113005060C000005EC000005CC000005AC0000028
S113006058C0000056C0000054C0000052C0000038
S113007050C000004EC000004CC000004AC0000048
S113008048C0000046C0000044C0000042C0000058
S113009040C000003EC000003CC000003AC0000068
S11300A038C0000036C0000034C0000032C0000078
S11300B030C000002EC000002CC000002AC0000088
S11300C028C0000026C0000024C0000022C0000098
S11300D020C000001EC000001CC000001AC00000A8
S11300E018C0000011241FBECFEFD1E2DEBFCDBF88
S11300F000E00CBF12E0A0E0B2E0E4E7F6E000E0CC
S11301000BBF02C007900D92AC35B107D9F711D1DE
S1130110AFC276CFCF93DF9380E59DD08EE2CED071
S113012081E5C1D0DDD0C82FC0D080E594D08FE266
S1130130C5D081E5B8D0D4D0D82FB7D06C2F70E01B
S11301407D2B072E000C880B990B70D12AE037ED1C
S113015043E25CE3CFD1DF91CF910895CF93DF9356
S113016080E579D080E3AAD081E59DD0B9D0C82FAD
S11301709CD080E570D081E3A1D081E594D0B0D04B
S1130180D82F93D06C2F70E07D2B072E000C880B9A
S1130190990B4CD12AE037ED43E25CE3ABD1DF911C
S11301A0CF910895CF93DF9380E555D082E386D035
S11301B081E579D095D0C82F78D080E54CD083E301
S11301C07DD081E570D08CD0D82F6FD06C2F70E0AB
S11301D07D2B072E000C880B990B28D12AE037EDD4
S11301E043E25CE387D1DF91CF91089580E533D07A
S11301F08DE364D08CE062D058C008951092B900A9
S11302008CE08093B800089594EA9093BC00ECEBE2
S1130210F0E090819923ECF79091B900987F9830A1
S113022011F09031A1F48093BB0084E88093BC006A
S1130230ECEBF0E080818823ECF79091B900987F93
S1130240983139F081E0903429F480E0089581E018
S1130250089580E00895CF93DF93ECEBF0E024EA77
S1130260A9EBB0E0CBEBD0E034E844E92083908103
S11302709923ECF79C91987F983011F09031B1F765
S11302808883308390819923ECF79C91987F9032F6
S113029011F0983529F44083908194FDFDCFE6CF89
S11302A0DF91CF910895B0CF089584E98093BC0085
S11302B0ECEBF0E0808184FDFDCF08958093BB00DA
S11302C084E88093BC00ECEBF0E080818823ECF7B9
S11302D09091B900987F81E0983209F480E0089504
S11302E084E88093BC00ECEBF0E080818823ECF799
S11302F08091BB000895CF93DF93CDB7DEB76097AD
S11303000FB6F894DEBF0FBECDBF5DD0DC01CB01CC
S11303104AE0BE016F5F7F4F78D1CE01019645D090
S113032060960FB6F894DEBF0FBECDBFDF91CF91BC
S1130330089564DF26D080E092E037D057DF8FE362
S11303409CE90197F1F700C000008BE292E02DD008
S113035083E392E02AD0DEDECEDF8FE392E025D085
S113036081E492E022D0FADEC6DF8FE392E01DD072
S11303708DE492E01AD016DFBEDF89E592E015D055
S1130380E4CF1092C50087E68093C40088E0809390
S1130390C10086E08093C2000895E0ECF0E0908113
S11303A095FFFDCF8093C6000895CF93DF93EC01B2
S11303B08881882329F02196F0DF89918111FCCF6F
S11303C0DF91CF91089504D06894B1118DC0089540
S11303D070D088F09F5790F0B92F9927B751A0F0AB
S11303E0D1F0660F771F881F991F1AF0BA95C9F7C5
S11303F012C0B13081F077D0B1E0089574C0672F96
S1130400782F8827B85F39F0B93FCCF38695779574
S11304106795B395D9F73EF490958095709561955D
S11304207F4F8F4F9F4F0895E89409C097FB3EF488
S113043090958095709561957F4F8F4F9F4F99232D
S1130440A9F0F92F96E9BB279395F69587957795AB
S11304506795B795F111F8CFFAF4BB0F11F460FF6B
S11304601BC06F5F7F4F8F4F9F4F16C0882311F0C3
S113047096E911C0772321F09EE8872F762F05C0D7
S1130480662371F096E8862F70E060E02AF09A9572
S1130490660F771F881FDAF7880F9695879597F967
S11304A0089557FD9058440F551F59F05F3F71F060
S11304B04795880F97FB991F61F09F3F79F08795C7
S11304C00895121613061406551FF2CF4695F1DF50
S11304D008C0161617061806991FF1CF86957105E0
S11304E0610508940895E894BB2766277727CB0114
S11304F097F908950BD078C069D028F06ED018F021
S1130500952309F05AC05FC01124EECFCADFA0F3CF
S1130510959FD1F3950F50E0551F629FF001729F94
S1130520BB27F00DB11D639FAA27F00DB11DAA1FB3
S1130530649F6627B00DA11D661F829F2227B00D00
S1130540A11D621F739FB00DA11D621F839FA00D8B
S1130550611D221F749F3327A00D611D231F849FDB
S1130560600D211D822F762F6A2F11249F57504032
S11305708AF0E1F088234AF0EE0FFF1FBB1F661FCD
S1130580771F881F91505040A9F79E3F510570F086
S113059014C0AACF5F3FECF3983EDCF386957795C1
S11305A06795B795F795E7959F5FC1F7FE2B880F81
S11305B0911D9695879597F9089597F99F6780E817
S11305C070E060E008959FEF80EC089500240A94A1
S11305D01616170618060906089500240A9412161A
S11305E01306140605060895092E0394000C11F44D
S11305F0882352F0BB0F40F4BF2B11F460FF04C0FA
S11306006F5F7F4F8F4F9F4F0895BB274A3031F460
S1130610992322F4BDE2909581959F4F01C0BB2799
S1130620FB015527AA27880F991FAA1FA41710F0AA
S1130630A41B83955051B9F7A05DAA3308F0A95DB6
S1130640A193009779F7B111B1931192CB0100C036
S1130650DC01FC01672F71917723E1F7329704C025
S11306607C916D9370836291AE17BF07C8F30895B0
S1070670F894FFCF28
S11306740909092A2A2A2A2A2A2A2A2A2A2A2A2A35
S11306842A2A2A2A2A48692A2A2A2A2A2A2A2A2A65
S11306942A2A2A2A2A2A2A2A2A2A000A48656C6C1F
S11306A46F2100477261766974795F583A200009B2
S11306B400477261766974795F593A200047726120
S10F06C4766974795F5A3A20000A00003D
S9030000FC
